{
  "contractName": "LibPart",
  "abi": [
    {
      "inputs": [],
      "name": "TYPE_HASH",
      "outputs": [
        {
          "internalType": "bytes32",
          "name": "",
          "type": "bytes32"
        }
      ],
      "stateMutability": "view",
      "type": "function"
    }
  ],
  "bytecode": "0x60f9610052600b82828239805160001a607314610045577f4e487b7100000000000000000000000000000000000000000000000000000000600052600060045260246000fd5b30600052607381538281f3fe73000000000000000000000000000000000000000030146080604052600436106050576000357c01000000000000000000000000000000000000000000000000000000009004806364d4c819146055575b600080fd5b605b606f565b6040516066919060aa565b60405180910390f35b7f397e04204c1e1a60ee8724b71f8244e10ab5f2e9009854d80f602bda21b59ebb81565b6000819050919050565b60a4816093565b82525050565b600060208201905060bd6000830184609d565b9291505056fea2646970667358221220fa98598151601afdf9a8d0323fed223b297a7899fb6c028e65af27a94cb73bac64736f6c634300080d0033",
  "immutableReferences": {},
  "source": "// SPDX-License-Identifier: MIT \r\npragma solidity ^0.8.0;\r\nlibrary LibPart { \r\n    bytes32 public constant TYPE_HASH = keccak256(\"Part(address account,uint96 value)\");\r\n    struct Part { address payable account;\r\n        uint96 value; \r\n    }\r\n    function hash(Part memory part) internal pure returns (bytes32){ \r\n        return keccak256(abi.encode(TYPE_HASH, part.account,  part.value));\r\n    }\r\n}",
  "sourcePath": "E:\\BlockChainTutorial\\deployWithTruffle\\contracts\\@rarible\\royalties\\contracts\\LibPart.sol",
  "compiler": {
    "name": "solc",
    "version": "0.8.13+commit.abaa5c0e.Emscripten.clang"
  },
  "schemaVersion": "3.4.7",
  "updatedAt": "2022-04-15T09:22:00.700Z",
  "devdoc": {
    "kind": "dev",
    "methods": {},
    "version": 1
  },
  "userdoc": {
    "kind": "user",
    "methods": {},
    "version": 1
  }
}