{
  "contractName": "NFTMarketPlace",
  "abi": [
    {
      "inputs": [],
      "stateMutability": "nonpayable",
      "type": "constructor"
    },
    {
      "anonymous": false,
      "inputs": [
        {
          "indexed": false,
          "internalType": "uint256",
          "name": "id",
          "type": "uint256"
        }
      ],
      "name": "MarketItemDeleted",
      "type": "event"
    },
    {
      "anonymous": false,
      "inputs": [
        {
          "indexed": true,
          "internalType": "address",
          "name": "nftContract",
          "type": "address"
        },
        {
          "indexed": true,
          "internalType": "uint256",
          "name": "id",
          "type": "uint256"
        },
        {
          "indexed": false,
          "internalType": "uint256",
          "name": "tokenId",
          "type": "uint256"
        },
        {
          "indexed": false,
          "internalType": "address",
          "name": "creator",
          "type": "address"
        },
        {
          "indexed": false,
          "internalType": "address",
          "name": "seller",
          "type": "address"
        },
        {
          "indexed": false,
          "internalType": "address",
          "name": "owner",
          "type": "address"
        },
        {
          "indexed": false,
          "internalType": "address",
          "name": "admin",
          "type": "address"
        },
        {
          "indexed": false,
          "internalType": "uint256",
          "name": "price",
          "type": "uint256"
        },
        {
          "indexed": false,
          "internalType": "int32",
          "name": "royalty",
          "type": "int32"
        },
        {
          "indexed": false,
          "internalType": "bool",
          "name": "sold",
          "type": "bool"
        },
        {
          "indexed": false,
          "internalType": "address",
          "name": "oldOwner",
          "type": "address"
        },
        {
          "indexed": false,
          "internalType": "address",
          "name": "oldSeller",
          "type": "address"
        },
        {
          "indexed": false,
          "internalType": "uint256",
          "name": "oldPrice",
          "type": "uint256"
        },
        {
          "indexed": false,
          "internalType": "bool",
          "name": "isResell",
          "type": "bool"
        }
      ],
      "name": "NftMarketItemCreated",
      "type": "event"
    },
    {
      "anonymous": false,
      "inputs": [
        {
          "indexed": true,
          "internalType": "uint256",
          "name": "itemId",
          "type": "uint256"
        }
      ],
      "name": "ProductListed",
      "type": "event"
    },
    {
      "anonymous": false,
      "inputs": [
        {
          "indexed": true,
          "internalType": "uint256",
          "name": "id",
          "type": "uint256"
        },
        {
          "indexed": true,
          "internalType": "address",
          "name": "nftContract",
          "type": "address"
        },
        {
          "indexed": true,
          "internalType": "uint256",
          "name": "tokenId",
          "type": "uint256"
        },
        {
          "indexed": false,
          "internalType": "address",
          "name": "creator",
          "type": "address"
        },
        {
          "indexed": false,
          "internalType": "address",
          "name": "seller",
          "type": "address"
        },
        {
          "indexed": false,
          "internalType": "address",
          "name": "owner",
          "type": "address"
        },
        {
          "indexed": false,
          "internalType": "uint256",
          "name": "price",
          "type": "uint256"
        },
        {
          "indexed": false,
          "internalType": "address",
          "name": "oldOwner",
          "type": "address"
        },
        {
          "indexed": false,
          "internalType": "address",
          "name": "oldSeller",
          "type": "address"
        },
        {
          "indexed": false,
          "internalType": "uint256",
          "name": "oldPrice",
          "type": "uint256"
        },
        {
          "indexed": false,
          "internalType": "bool",
          "name": "isResell",
          "type": "bool"
        }
      ],
      "name": "ProductSold",
      "type": "event"
    },
    {
      "anonymous": false,
      "inputs": [
        {
          "indexed": true,
          "internalType": "uint256",
          "name": "id",
          "type": "uint256"
        },
        {
          "indexed": true,
          "internalType": "uint256",
          "name": "newPrice",
          "type": "uint256"
        },
        {
          "indexed": false,
          "internalType": "bool",
          "name": "sold",
          "type": "bool"
        },
        {
          "indexed": false,
          "internalType": "address",
          "name": "owner",
          "type": "address"
        },
        {
          "indexed": false,
          "internalType": "address",
          "name": "seller",
          "type": "address"
        }
      ],
      "name": "ProductUpdated",
      "type": "event"
    },
    {
      "inputs": [],
      "name": "gettheMarketFees",
      "outputs": [
        {
          "internalType": "uint256",
          "name": "",
          "type": "uint256"
        }
      ],
      "stateMutability": "view",
      "type": "function",
      "constant": true
    },
    {
      "inputs": [
        {
          "internalType": "address",
          "name": "nftContract",
          "type": "address"
        },
        {
          "internalType": "uint256",
          "name": "tokenId",
          "type": "uint256"
        },
        {
          "internalType": "uint256",
          "name": "price",
          "type": "uint256"
        },
        {
          "internalType": "int32",
          "name": "royalty",
          "type": "int32"
        }
      ],
      "name": "createItemForSale",
      "outputs": [],
      "stateMutability": "payable",
      "type": "function",
      "payable": true
    },
    {
      "inputs": [
        {
          "internalType": "address",
          "name": "nftContract",
          "type": "address"
        },
        {
          "internalType": "uint256",
          "name": "id",
          "type": "uint256"
        },
        {
          "internalType": "uint256",
          "name": "tokenId",
          "type": "uint256"
        }
      ],
      "name": "updateMarketItem",
      "outputs": [],
      "stateMutability": "payable",
      "type": "function",
      "payable": true
    },
    {
      "inputs": [
        {
          "internalType": "uint256",
          "name": "nftItemId",
          "type": "uint256"
        }
      ],
      "name": "sendRoyaltiesToCreator",
      "outputs": [],
      "stateMutability": "payable",
      "type": "function",
      "payable": true
    },
    {
      "inputs": [
        {
          "internalType": "uint256",
          "name": "nftItemId",
          "type": "uint256"
        }
      ],
      "name": "sendAdimCommissionToAdmin",
      "outputs": [],
      "stateMutability": "payable",
      "type": "function",
      "payable": true
    },
    {
      "inputs": [
        {
          "internalType": "address",
          "name": "nftContract",
          "type": "address"
        },
        {
          "internalType": "uint256",
          "name": "nftItemId",
          "type": "uint256"
        }
      ],
      "name": "createMarketForSale",
      "outputs": [],
      "stateMutability": "payable",
      "type": "function",
      "payable": true
    },
    {
      "inputs": [
        {
          "internalType": "address",
          "name": "nftContract",
          "type": "address"
        },
        {
          "internalType": "uint256",
          "name": "nftItemId",
          "type": "uint256"
        }
      ],
      "name": "cancelResellWitholdPrice",
      "outputs": [],
      "stateMutability": "payable",
      "type": "function",
      "payable": true
    },
    {
      "inputs": [
        {
          "internalType": "address",
          "name": "nftContract",
          "type": "address"
        },
        {
          "internalType": "uint256",
          "name": "itemid",
          "type": "uint256"
        },
        {
          "internalType": "uint256",
          "name": "newPrice",
          "type": "uint256"
        }
      ],
      "name": "putItemToResell",
      "outputs": [],
      "stateMutability": "payable",
      "type": "function",
      "payable": true
    },
    {
      "inputs": [
        {
          "internalType": "uint256",
          "name": "id",
          "type": "uint256"
        }
      ],
      "name": "fetchSingleItem",
      "outputs": [
        {
          "components": [
            {
              "internalType": "address",
              "name": "nftContract",
              "type": "address"
            },
            {
              "internalType": "uint256",
              "name": "id",
              "type": "uint256"
            },
            {
              "internalType": "uint256",
              "name": "tokenId",
              "type": "uint256"
            },
            {
              "internalType": "address payable",
              "name": "creator",
              "type": "address"
            },
            {
              "internalType": "address payable",
              "name": "seller",
              "type": "address"
            },
            {
              "internalType": "address payable",
              "name": "owner",
              "type": "address"
            },
            {
              "internalType": "address payable",
              "name": "admin",
              "type": "address"
            },
            {
              "internalType": "uint256",
              "name": "price",
              "type": "uint256"
            },
            {
              "internalType": "int32",
              "name": "royalty",
              "type": "int32"
            },
            {
              "internalType": "bool",
              "name": "sold",
              "type": "bool"
            },
            {
              "internalType": "address",
              "name": "oldOwner",
              "type": "address"
            },
            {
              "internalType": "address",
              "name": "oldSeller",
              "type": "address"
            },
            {
              "internalType": "uint256",
              "name": "oldPrice",
              "type": "uint256"
            },
            {
              "internalType": "bool",
              "name": "isResell",
              "type": "bool"
            }
          ],
          "internalType": "struct NFTMarketPlace.NftMarketItem",
          "name": "",
          "type": "tuple"
        }
      ],
      "stateMutability": "view",
      "type": "function",
      "constant": true
    },
    {
      "inputs": [],
      "name": "getMyItemCreated",
      "outputs": [
        {
          "components": [
            {
              "internalType": "address",
              "name": "nftContract",
              "type": "address"
            },
            {
              "internalType": "uint256",
              "name": "id",
              "type": "uint256"
            },
            {
              "internalType": "uint256",
              "name": "tokenId",
              "type": "uint256"
            },
            {
              "internalType": "address payable",
              "name": "creator",
              "type": "address"
            },
            {
              "internalType": "address payable",
              "name": "seller",
              "type": "address"
            },
            {
              "internalType": "address payable",
              "name": "owner",
              "type": "address"
            },
            {
              "internalType": "address payable",
              "name": "admin",
              "type": "address"
            },
            {
              "internalType": "uint256",
              "name": "price",
              "type": "uint256"
            },
            {
              "internalType": "int32",
              "name": "royalty",
              "type": "int32"
            },
            {
              "internalType": "bool",
              "name": "sold",
              "type": "bool"
            },
            {
              "internalType": "address",
              "name": "oldOwner",
              "type": "address"
            },
            {
              "internalType": "address",
              "name": "oldSeller",
              "type": "address"
            },
            {
              "internalType": "uint256",
              "name": "oldPrice",
              "type": "uint256"
            },
            {
              "internalType": "bool",
              "name": "isResell",
              "type": "bool"
            }
          ],
          "internalType": "struct NFTMarketPlace.NftMarketItem[]",
          "name": "",
          "type": "tuple[]"
        }
      ],
      "stateMutability": "view",
      "type": "function",
      "constant": true
    },
    {
      "inputs": [],
      "name": "getMyItemsolod",
      "outputs": [
        {
          "components": [
            {
              "internalType": "address",
              "name": "nftContract",
              "type": "address"
            },
            {
              "internalType": "uint256",
              "name": "id",
              "type": "uint256"
            },
            {
              "internalType": "uint256",
              "name": "tokenId",
              "type": "uint256"
            },
            {
              "internalType": "address payable",
              "name": "creator",
              "type": "address"
            },
            {
              "internalType": "address payable",
              "name": "seller",
              "type": "address"
            },
            {
              "internalType": "address payable",
              "name": "owner",
              "type": "address"
            },
            {
              "internalType": "address payable",
              "name": "admin",
              "type": "address"
            },
            {
              "internalType": "uint256",
              "name": "price",
              "type": "uint256"
            },
            {
              "internalType": "int32",
              "name": "royalty",
              "type": "int32"
            },
            {
              "internalType": "bool",
              "name": "sold",
              "type": "bool"
            },
            {
              "internalType": "address",
              "name": "oldOwner",
              "type": "address"
            },
            {
              "internalType": "address",
              "name": "oldSeller",
              "type": "address"
            },
            {
              "internalType": "uint256",
              "name": "oldPrice",
              "type": "uint256"
            },
            {
              "internalType": "bool",
              "name": "isResell",
              "type": "bool"
            }
          ],
          "internalType": "struct NFTMarketPlace.NftMarketItem[]",
          "name": "",
          "type": "tuple[]"
        }
      ],
      "stateMutability": "view",
      "type": "function",
      "constant": true
    },
    {
      "inputs": [],
      "name": "getMyNFTPurchased",
      "outputs": [
        {
          "components": [
            {
              "internalType": "address",
              "name": "nftContract",
              "type": "address"
            },
            {
              "internalType": "uint256",
              "name": "id",
              "type": "uint256"
            },
            {
              "internalType": "uint256",
              "name": "tokenId",
              "type": "uint256"
            },
            {
              "internalType": "address payable",
              "name": "creator",
              "type": "address"
            },
            {
              "internalType": "address payable",
              "name": "seller",
              "type": "address"
            },
            {
              "internalType": "address payable",
              "name": "owner",
              "type": "address"
            },
            {
              "internalType": "address payable",
              "name": "admin",
              "type": "address"
            },
            {
              "internalType": "uint256",
              "name": "price",
              "type": "uint256"
            },
            {
              "internalType": "int32",
              "name": "royalty",
              "type": "int32"
            },
            {
              "internalType": "bool",
              "name": "sold",
              "type": "bool"
            },
            {
              "internalType": "address",
              "name": "oldOwner",
              "type": "address"
            },
            {
              "internalType": "address",
              "name": "oldSeller",
              "type": "address"
            },
            {
              "internalType": "uint256",
              "name": "oldPrice",
              "type": "uint256"
            },
            {
              "internalType": "bool",
              "name": "isResell",
              "type": "bool"
            }
          ],
          "internalType": "struct NFTMarketPlace.NftMarketItem[]",
          "name": "",
          "type": "tuple[]"
        }
      ],
      "stateMutability": "view",
      "type": "function",
      "constant": true
    },
    {
      "inputs": [],
      "name": "getAllUnsoldItems",
      "outputs": [
        {
          "components": [
            {
              "internalType": "address",
              "name": "nftContract",
              "type": "address"
            },
            {
              "internalType": "uint256",
              "name": "id",
              "type": "uint256"
            },
            {
              "internalType": "uint256",
              "name": "tokenId",
              "type": "uint256"
            },
            {
              "internalType": "address payable",
              "name": "creator",
              "type": "address"
            },
            {
              "internalType": "address payable",
              "name": "seller",
              "type": "address"
            },
            {
              "internalType": "address payable",
              "name": "owner",
              "type": "address"
            },
            {
              "internalType": "address payable",
              "name": "admin",
              "type": "address"
            },
            {
              "internalType": "uint256",
              "name": "price",
              "type": "uint256"
            },
            {
              "internalType": "int32",
              "name": "royalty",
              "type": "int32"
            },
            {
              "internalType": "bool",
              "name": "sold",
              "type": "bool"
            },
            {
              "internalType": "address",
              "name": "oldOwner",
              "type": "address"
            },
            {
              "internalType": "address",
              "name": "oldSeller",
              "type": "address"
            },
            {
              "internalType": "uint256",
              "name": "oldPrice",
              "type": "uint256"
            },
            {
              "internalType": "bool",
              "name": "isResell",
              "type": "bool"
            }
          ],
          "internalType": "struct NFTMarketPlace.NftMarketItem[]",
          "name": "",
          "type": "tuple[]"
        }
      ],
      "stateMutability": "view",
      "type": "function",
      "constant": true
    },
    {
      "inputs": [],
      "name": "getMyResellItems",
      "outputs": [
        {
          "components": [
            {
              "internalType": "address",
              "name": "nftContract",
              "type": "address"
            },
            {
              "internalType": "uint256",
              "name": "id",
              "type": "uint256"
            },
            {
              "internalType": "uint256",
              "name": "tokenId",
              "type": "uint256"
            },
            {
              "internalType": "address payable",
              "name": "creator",
              "type": "address"
            },
            {
              "internalType": "address payable",
              "name": "seller",
              "type": "address"
            },
            {
              "internalType": "address payable",
              "name": "owner",
              "type": "address"
            },
            {
              "internalType": "address payable",
              "name": "admin",
              "type": "address"
            },
            {
              "internalType": "uint256",
              "name": "price",
              "type": "uint256"
            },
            {
              "internalType": "int32",
              "name": "royalty",
              "type": "int32"
            },
            {
              "internalType": "bool",
              "name": "sold",
              "type": "bool"
            },
            {
              "internalType": "address",
              "name": "oldOwner",
              "type": "address"
            },
            {
              "internalType": "address",
              "name": "oldSeller",
              "type": "address"
            },
            {
              "internalType": "uint256",
              "name": "oldPrice",
              "type": "uint256"
            },
            {
              "internalType": "bool",
              "name": "isResell",
              "type": "bool"
            }
          ],
          "internalType": "struct NFTMarketPlace.NftMarketItem[]",
          "name": "",
          "type": "tuple[]"
        }
      ],
      "stateMutability": "view",
      "type": "function",
      "constant": true
    }
  ],
  "bytecode": "0x608060405267016345785d8a000060025534801561001c57600080fd5b50600160008190555033600160006101000a81548173ffffffffffffffffffffffffffffffffffffffff021916908373ffffffffffffffffffffffffffffffffffffffff1602179055506144fb806100756000396000f3fe6080604052600436106100fa576000357c010000000000000000000000000000000000000000000000000000000090048063858c29531161009c578063a3c3204411610076578063a3c3204414610274578063a3cf6c581461029f578063a8176e58146102bb578063bca52442146102d7576100fa565b8063858c2953146101f05780639e31e6551461020c578063a2bf932a14610237576100fa565b806357e9b6cc116100d857806357e9b6cc1461018057806358271fff1461019c578063602aca3f146101b85780636f9cb54b146101d4576100fa565b806325135cbf146100ff578063394f9a8f1461012a578063446269e614610155575b600080fd5b34801561010b57600080fd5b50610114610302565b6040516101219190613998565b60405180910390f35b34801561013657600080fd5b5061013f610766565b60405161014c9190613998565b60405180910390f35b34801561016157600080fd5b5061016a610c4d565b6040516101779190613998565b60405180910390f35b61019a60048036038101906101959190613a17565b611134565b005b6101b660048036038101906101b19190613a57565b611458565b005b6101d260048036038101906101cd9190613aaa565b6118cd565b005b6101ee60048036038101906101e99190613aaa565b6119a2565b005b61020a60048036038101906102059190613a17565b611a77565b005b34801561021857600080fd5b50610221611e2e565b60405161022e9190613998565b60405180910390f35b34801561024357600080fd5b5061025e60048036038101906102599190613aaa565b612315565b60405161026b9190613bf7565b60405180910390f35b34801561028057600080fd5b50610289612618565b6040516102969190613998565b60405180910390f35b6102b960048036038101906102b49190613a57565b612b7f565b005b6102d560048036038101906102d09190613c3f565b612e89565b005b3480156102e357600080fd5b506102ec61357c565b6040516102f99190613cb5565b60405180910390f35b606060006103106003613586565b9050600061031e6004613586565b6103286003613586565b6103329190613cff565b90506000808267ffffffffffffffff81111561035157610350613d33565b5b60405190808252806020026020018201604052801561038a57816020015b610377613606565b81526020019060019003908161036f5790505b50905060005b8481101561075b57600073ffffffffffffffffffffffffffffffffffffffff16600660006001846103c19190613d62565b815260200190815260200160002060050160009054906101000a900473ffffffffffffffffffffffffffffffffffffffff1673ffffffffffffffffffffffffffffffffffffffff160361074857600060018261041d9190613d62565b9050600060066000838152602001908152602001600020905080604051806101c00160405290816000820160009054906101000a900473ffffffffffffffffffffffffffffffffffffffff1673ffffffffffffffffffffffffffffffffffffffff1673ffffffffffffffffffffffffffffffffffffffff16815260200160018201548152602001600282015481526020016003820160009054906101000a900473ffffffffffffffffffffffffffffffffffffffff1673ffffffffffffffffffffffffffffffffffffffff1673ffffffffffffffffffffffffffffffffffffffff1681526020016004820160009054906101000a900473ffffffffffffffffffffffffffffffffffffffff1673ffffffffffffffffffffffffffffffffffffffff1673ffffffffffffffffffffffffffffffffffffffff1681526020016005820160009054906101000a900473ffffffffffffffffffffffffffffffffffffffff1673ffffffffffffffffffffffffffffffffffffffff1673ffffffffffffffffffffffffffffffffffffffff1681526020016006820160009054906101000a900473ffffffffffffffffffffffffffffffffffffffff1673ffffffffffffffffffffffffffffffffffffffff1673ffffffffffffffffffffffffffffffffffffffff168152602001600782015481526020016008820160009054906101000a900460030b60030b60030b81526020016008820160049054906101000a900460ff161515151581526020016008820160059054906101000a900473ffffffffffffffffffffffffffffffffffffffff1673ffffffffffffffffffffffffffffffffffffffff1673ffffffffffffffffffffffffffffffffffffffff1681526020016009820160009054906101000a900473ffffffffffffffffffffffffffffffffffffffff1673ffffffffffffffffffffffffffffffffffffffff1673ffffffffffffffffffffffffffffffffffffffff168152602001600a8201548152602001600b820160009054906101000a900460ff16151515158152505084868151811061072b5761072a613db8565b5b60200260200101819052506001856107439190613d62565b945050505b808061075390613de7565b915050610390565b508094505050505090565b606060006107746003613586565b905060008060005b8381101561081c573373ffffffffffffffffffffffffffffffffffffffff16600660006001846107ac9190613d62565b815260200190815260200160002060040160009054906101000a900473ffffffffffffffffffffffffffffffffffffffff1673ffffffffffffffffffffffffffffffffffffffff1603610809576001836108069190613d62565b92505b808061081490613de7565b91505061077c565b5060008267ffffffffffffffff81111561083957610838613d33565b5b60405190808252806020026020018201604052801561087257816020015b61085f613606565b8152602001906001900390816108575790505b50905060005b84811015610c42573373ffffffffffffffffffffffffffffffffffffffff16600660006001846108a89190613d62565b815260200190815260200160002060040160009054906101000a900473ffffffffffffffffffffffffffffffffffffffff1673ffffffffffffffffffffffffffffffffffffffff1603610c2f5760006001826109049190613d62565b9050600060066000838152602001908152602001600020905080604051806101c00160405290816000820160009054906101000a900473ffffffffffffffffffffffffffffffffffffffff1673ffffffffffffffffffffffffffffffffffffffff1673ffffffffffffffffffffffffffffffffffffffff16815260200160018201548152602001600282015481526020016003820160009054906101000a900473ffffffffffffffffffffffffffffffffffffffff1673ffffffffffffffffffffffffffffffffffffffff1673ffffffffffffffffffffffffffffffffffffffff1681526020016004820160009054906101000a900473ffffffffffffffffffffffffffffffffffffffff1673ffffffffffffffffffffffffffffffffffffffff1673ffffffffffffffffffffffffffffffffffffffff1681526020016005820160009054906101000a900473ffffffffffffffffffffffffffffffffffffffff1673ffffffffffffffffffffffffffffffffffffffff1673ffffffffffffffffffffffffffffffffffffffff1681526020016006820160009054906101000a900473ffffffffffffffffffffffffffffffffffffffff1673ffffffffffffffffffffffffffffffffffffffff1673ffffffffffffffffffffffffffffffffffffffff168152602001600782015481526020016008820160009054906101000a900460030b60030b60030b81526020016008820160049054906101000a900460ff161515151581526020016008820160059054906101000a900473ffffffffffffffffffffffffffffffffffffffff1673ffffffffffffffffffffffffffffffffffffffff1673ffffffffffffffffffffffffffffffffffffffff1681526020016009820160009054906101000a900473ffffffffffffffffffffffffffffffffffffffff1673ffffffffffffffffffffffffffffffffffffffff1673ffffffffffffffffffffffffffffffffffffffff168152602001600a8201548152602001600b820160009054906101000a900460ff161515151581525050848681518110610c1257610c11613db8565b5b6020026020010181905250600185610c2a9190613d62565b945050505b8080610c3a90613de7565b915050610878565b508094505050505090565b60606000610c5b6003613586565b905060008060005b83811015610d03573373ffffffffffffffffffffffffffffffffffffffff1660066000600184610c939190613d62565b815260200190815260200160002060050160009054906101000a900473ffffffffffffffffffffffffffffffffffffffff1673ffffffffffffffffffffffffffffffffffffffff1603610cf057600183610ced9190613d62565b92505b8080610cfb90613de7565b915050610c63565b5060008267ffffffffffffffff811115610d2057610d1f613d33565b5b604051908082528060200260200182016040528015610d5957816020015b610d46613606565b815260200190600190039081610d3e5790505b50905060005b84811015611129573373ffffffffffffffffffffffffffffffffffffffff1660066000600184610d8f9190613d62565b815260200190815260200160002060050160009054906101000a900473ffffffffffffffffffffffffffffffffffffffff1673ffffffffffffffffffffffffffffffffffffffff1603611116576000600182610deb9190613d62565b9050600060066000838152602001908152602001600020905080604051806101c00160405290816000820160009054906101000a900473ffffffffffffffffffffffffffffffffffffffff1673ffffffffffffffffffffffffffffffffffffffff1673ffffffffffffffffffffffffffffffffffffffff16815260200160018201548152602001600282015481526020016003820160009054906101000a900473ffffffffffffffffffffffffffffffffffffffff1673ffffffffffffffffffffffffffffffffffffffff1673ffffffffffffffffffffffffffffffffffffffff1681526020016004820160009054906101000a900473ffffffffffffffffffffffffffffffffffffffff1673ffffffffffffffffffffffffffffffffffffffff1673ffffffffffffffffffffffffffffffffffffffff1681526020016005820160009054906101000a900473ffffffffffffffffffffffffffffffffffffffff1673ffffffffffffffffffffffffffffffffffffffff1673ffffffffffffffffffffffffffffffffffffffff1681526020016006820160009054906101000a900473ffffffffffffffffffffffffffffffffffffffff1673ffffffffffffffffffffffffffffffffffffffff1673ffffffffffffffffffffffffffffffffffffffff168152602001600782015481526020016008820160009054906101000a900460030b60030b60030b81526020016008820160049054906101000a900460ff161515151581526020016008820160059054906101000a900473ffffffffffffffffffffffffffffffffffffffff1673ffffffffffffffffffffffffffffffffffffffff1673ffffffffffffffffffffffffffffffffffffffff1681526020016009820160009054906101000a900473ffffffffffffffffffffffffffffffffffffffff1673ffffffffffffffffffffffffffffffffffffffff1673ffffffffffffffffffffffffffffffffffffffff168152602001600a8201548152602001600b820160009054906101000a900460ff1615151515815250508486815181106110f9576110f8613db8565b5b60200260200101819052506001856111119190613d62565b945050505b808061112190613de7565b915050610d5f565b508094505050505090565b600260005403611179576040517f08c379a000000000000000000000000000000000000000000000000000000000815260040161117090613e8c565b60405180910390fd5b60026000819055506000600660008381526020019081526020016000206002015490508273ffffffffffffffffffffffffffffffffffffffff166323b872dd3033846040518463ffffffff167c01000000000000000000000000000000000000000000000000000000000281526004016111f593929190613ebb565b600060405180830381600087803b15801561120f57600080fd5b505af1158015611223573d6000803e3d6000fd5b50505050336006600084815260200190815260200160002060050160006101000a81548173ffffffffffffffffffffffffffffffffffffffff021916908373ffffffffffffffffffffffffffffffffffffffff16021790555060016006600084815260200190815260200160002060080160046101000a81548160ff021916908315150217905550600160066000848152602001908152602001600020600b0160006101000a81548160ff0219169083151502179055506112e46004613594565b60066000838152602001908152602001600020600201546006600084815260200190815260200160002060000160009054906101000a900473ffffffffffffffffffffffffffffffffffffffff1673ffffffffffffffffffffffffffffffffffffffff1660066000858152602001908152602001600020600101547fab47c87ce5bb9a766199be058dc64048cddc53e92f4bc46d413a1e9484e770cd6006600087815260200190815260200160002060030160009054906101000a900473ffffffffffffffffffffffffffffffffffffffff166006600088815260200190815260200160002060040160009054906101000a900473ffffffffffffffffffffffffffffffffffffffff1633600660008a8152602001908152602001600020600701546000806000600660008e8152602001908152602001600020600b0160009054906101000a900460ff16604051611443989796959493929190613f9b565b60405180910390a45060016000819055505050565b60026000540361149d576040517f08c379a000000000000000000000000000000000000000000000000000000000815260040161149490613e8c565b60405180910390fd5b6002600081905550813373ffffffffffffffffffffffffffffffffffffffff166006600083815260200190815260200160002060050160009054906101000a900473ffffffffffffffffffffffffffffffffffffffff1673ffffffffffffffffffffffffffffffffffffffff161461154a576040517f08c379a00000000000000000000000000000000000000000000000000000000081526004016115419061408b565b60405180910390fd5b600060066000858152602001908152602001600020600201549050600083116115a8576040517f08c379a000000000000000000000000000000000000000000000000000000000815260040161159f906140f7565b60405180910390fd5b60008590508073ffffffffffffffffffffffffffffffffffffffff1663f5537ede3330856040518463ffffffff167c010000000000000000000000000000000000000000000000000000000002815260040161160693929190613ebb565b600060405180830381600087803b15801561162057600080fd5b505af1158015611634573d6000803e3d6000fd5b5050505060006006600087815260200190815260200160002060050160009054906101000a900473ffffffffffffffffffffffffffffffffffffffff16905060006006600088815260200190815260200160002060040160009054906101000a900473ffffffffffffffffffffffffffffffffffffffff1690506000600660008981526020019081526020016000206007015490506000600660008a815260200190815260200160002060050160006101000a81548173ffffffffffffffffffffffffffffffffffffffff021916908373ffffffffffffffffffffffffffffffffffffffff16021790555082600660008a815260200190815260200160002060040160006101000a81548173ffffffffffffffffffffffffffffffffffffffff021916908373ffffffffffffffffffffffffffffffffffffffff16021790555086600660008a8152602001908152602001600020600701819055506000600660008a815260200190815260200160002060080160046101000a81548160ff02191690831515021790555082600660008a815260200190815260200160002060080160056101000a81548173ffffffffffffffffffffffffffffffffffffffff021916908373ffffffffffffffffffffffffffffffffffffffff16021790555081600660008a815260200190815260200160002060090160006101000a81548173ffffffffffffffffffffffffffffffffffffffff021916908373ffffffffffffffffffffffffffffffffffffffff16021790555080600660008a8152602001908152602001600020600a018190555061188d60046135aa565b877f221866c21613d6f0d77d42f9309b122a25deed1bc186cff9c2f1ddafc52c34f660405160405180910390a25050505050506001600081905550505050565b600260005403611912576040517f08c379a000000000000000000000000000000000000000000000000000000000815260040161190990613e8c565b60405180910390fd5b60026000819055506006600082815260200190815260200160002060030160009054906101000a900473ffffffffffffffffffffffffffffffffffffffff1673ffffffffffffffffffffffffffffffffffffffff166108fc349081150290604051600060405180830381858888f19350505050158015611996573d6000803e3d6000fd5b50600160008190555050565b6002600054036119e7576040517f08c379a00000000000000000000000000000000000000000000000000000000081526004016119de90613e8c565b60405180910390fd5b60026000819055506006600082815260200190815260200160002060060160009054906101000a900473ffffffffffffffffffffffffffffffffffffffff1673ffffffffffffffffffffffffffffffffffffffff166108fc349081150290604051600060405180830381858888f19350505050158015611a6b573d6000803e3d6000fd5b50600160008190555050565b600260005403611abc576040517f08c379a0000000000000000000000000000000000000000000000000000000008152600401611ab390613e8c565b60405180910390fd5b6002600081905550600060066000838152602001908152602001600020600a015490506000600660008481526020019081526020016000206002015490508373ffffffffffffffffffffffffffffffffffffffff166323b872dd3033846040518463ffffffff167c0100000000000000000000000000000000000000000000000000000000028152600401611b5393929190613ebb565b600060405180830381600087803b158015611b6d57600080fd5b505af1158015611b81573d6000803e3d6000fd5b50505050336006600085815260200190815260200160002060050160006101000a81548173ffffffffffffffffffffffffffffffffffffffff021916908373ffffffffffffffffffffffffffffffffffffffff1602179055508160066000858152602001908152602001600020600701819055506006600084815260200190815260200160002060090160009054906101000a900473ffffffffffffffffffffffffffffffffffffffff166006600085815260200190815260200160002060040160006101000a81548173ffffffffffffffffffffffffffffffffffffffff021916908373ffffffffffffffffffffffffffffffffffffffff16021790555060016006600085815260200190815260200160002060080160046101000a81548160ff021916908315150217905550611cb96004613594565b60066000848152602001908152602001600020600201546006600085815260200190815260200160002060000160009054906101000a900473ffffffffffffffffffffffffffffffffffffffff1673ffffffffffffffffffffffffffffffffffffffff1660066000868152602001908152602001600020600101547fab47c87ce5bb9a766199be058dc64048cddc53e92f4bc46d413a1e9484e770cd6006600088815260200190815260200160002060030160009054906101000a900473ffffffffffffffffffffffffffffffffffffffff166006600089815260200190815260200160002060040160009054906101000a900473ffffffffffffffffffffffffffffffffffffffff1633600660008b8152602001908152602001600020600701546000806000600660008f8152602001908152602001600020600b0160009054906101000a900460ff16604051611e18989796959493929190613f9b565b60405180910390a4505060016000819055505050565b60606000611e3c6003613586565b905060008060005b83811015611ee4573373ffffffffffffffffffffffffffffffffffffffff1660066000600184611e749190613d62565b815260200190815260200160002060030160009054906101000a900473ffffffffffffffffffffffffffffffffffffffff1673ffffffffffffffffffffffffffffffffffffffff1603611ed157600183611ece9190613d62565b92505b8080611edc90613de7565b915050611e44565b5060008267ffffffffffffffff811115611f0157611f00613d33565b5b604051908082528060200260200182016040528015611f3a57816020015b611f27613606565b815260200190600190039081611f1f5790505b50905060005b8481101561230a573373ffffffffffffffffffffffffffffffffffffffff1660066000600184611f709190613d62565b815260200190815260200160002060030160009054906101000a900473ffffffffffffffffffffffffffffffffffffffff1673ffffffffffffffffffffffffffffffffffffffff16036122f7576000600182611fcc9190613d62565b9050600060066000838152602001908152602001600020905080604051806101c00160405290816000820160009054906101000a900473ffffffffffffffffffffffffffffffffffffffff1673ffffffffffffffffffffffffffffffffffffffff1673ffffffffffffffffffffffffffffffffffffffff16815260200160018201548152602001600282015481526020016003820160009054906101000a900473ffffffffffffffffffffffffffffffffffffffff1673ffffffffffffffffffffffffffffffffffffffff1673ffffffffffffffffffffffffffffffffffffffff1681526020016004820160009054906101000a900473ffffffffffffffffffffffffffffffffffffffff1673ffffffffffffffffffffffffffffffffffffffff1673ffffffffffffffffffffffffffffffffffffffff1681526020016005820160009054906101000a900473ffffffffffffffffffffffffffffffffffffffff1673ffffffffffffffffffffffffffffffffffffffff1673ffffffffffffffffffffffffffffffffffffffff1681526020016006820160009054906101000a900473ffffffffffffffffffffffffffffffffffffffff1673ffffffffffffffffffffffffffffffffffffffff1673ffffffffffffffffffffffffffffffffffffffff168152602001600782015481526020016008820160009054906101000a900460030b60030b60030b81526020016008820160049054906101000a900460ff161515151581526020016008820160059054906101000a900473ffffffffffffffffffffffffffffffffffffffff1673ffffffffffffffffffffffffffffffffffffffff1673ffffffffffffffffffffffffffffffffffffffff1681526020016009820160009054906101000a900473ffffffffffffffffffffffffffffffffffffffff1673ffffffffffffffffffffffffffffffffffffffff1673ffffffffffffffffffffffffffffffffffffffff168152602001600a8201548152602001600b820160009054906101000a900460ff1615151515815250508486815181106122da576122d9613db8565b5b60200260200101819052506001856122f29190613d62565b945050505b808061230290613de7565b915050611f40565b508094505050505090565b61231d613606565b60066000838152602001908152602001600020604051806101c00160405290816000820160009054906101000a900473ffffffffffffffffffffffffffffffffffffffff1673ffffffffffffffffffffffffffffffffffffffff1673ffffffffffffffffffffffffffffffffffffffff16815260200160018201548152602001600282015481526020016003820160009054906101000a900473ffffffffffffffffffffffffffffffffffffffff1673ffffffffffffffffffffffffffffffffffffffff1673ffffffffffffffffffffffffffffffffffffffff1681526020016004820160009054906101000a900473ffffffffffffffffffffffffffffffffffffffff1673ffffffffffffffffffffffffffffffffffffffff1673ffffffffffffffffffffffffffffffffffffffff1681526020016005820160009054906101000a900473ffffffffffffffffffffffffffffffffffffffff1673ffffffffffffffffffffffffffffffffffffffff1673ffffffffffffffffffffffffffffffffffffffff1681526020016006820160009054906101000a900473ffffffffffffffffffffffffffffffffffffffff1673ffffffffffffffffffffffffffffffffffffffff1673ffffffffffffffffffffffffffffffffffffffff168152602001600782015481526020016008820160009054906101000a900460030b60030b60030b81526020016008820160049054906101000a900460ff161515151581526020016008820160059054906101000a900473ffffffffffffffffffffffffffffffffffffffff1673ffffffffffffffffffffffffffffffffffffffff1673ffffffffffffffffffffffffffffffffffffffff1681526020016009820160009054906101000a900473ffffffffffffffffffffffffffffffffffffffff1673ffffffffffffffffffffffffffffffffffffffff1673ffffffffffffffffffffffffffffffffffffffff168152602001600a8201548152602001600b820160009054906101000a900460ff1615151515815250509050919050565b606060006126266003613586565b905060008060005b8381101561270e573373ffffffffffffffffffffffffffffffffffffffff166006600060018461265e9190613d62565b815260200190815260200160002060040160009054906101000a900473ffffffffffffffffffffffffffffffffffffffff1673ffffffffffffffffffffffffffffffffffffffff161480156126e6575060001515600660006001846126c39190613d62565b815260200190815260200160002060080160049054906101000a900460ff161515145b156126fb576001836126f89190613d62565b92505b808061270690613de7565b91505061262e565b5060008267ffffffffffffffff81111561272b5761272a613d33565b5b60405190808252806020026020018201604052801561276457816020015b612751613606565b8152602001906001900390816127495790505b50905060005b84811015612b74573373ffffffffffffffffffffffffffffffffffffffff166006600060018461279a9190613d62565b815260200190815260200160002060040160009054906101000a900473ffffffffffffffffffffffffffffffffffffffff1673ffffffffffffffffffffffffffffffffffffffff16148015612822575060001515600660006001846127ff9190613d62565b815260200190815260200160002060080160049054906101000a900460ff161515145b15612b615760006001826128369190613d62565b9050600060066000838152602001908152602001600020905080604051806101c00160405290816000820160009054906101000a900473ffffffffffffffffffffffffffffffffffffffff1673ffffffffffffffffffffffffffffffffffffffff1673ffffffffffffffffffffffffffffffffffffffff16815260200160018201548152602001600282015481526020016003820160009054906101000a900473ffffffffffffffffffffffffffffffffffffffff1673ffffffffffffffffffffffffffffffffffffffff1673ffffffffffffffffffffffffffffffffffffffff1681526020016004820160009054906101000a900473ffffffffffffffffffffffffffffffffffffffff1673ffffffffffffffffffffffffffffffffffffffff1673ffffffffffffffffffffffffffffffffffffffff1681526020016005820160009054906101000a900473ffffffffffffffffffffffffffffffffffffffff1673ffffffffffffffffffffffffffffffffffffffff1673ffffffffffffffffffffffffffffffffffffffff1681526020016006820160009054906101000a900473ffffffffffffffffffffffffffffffffffffffff1673ffffffffffffffffffffffffffffffffffffffff1673ffffffffffffffffffffffffffffffffffffffff168152602001600782015481526020016008820160009054906101000a900460030b60030b60030b81526020016008820160049054906101000a900460ff161515151581526020016008820160059054906101000a900473ffffffffffffffffffffffffffffffffffffffff1673ffffffffffffffffffffffffffffffffffffffff1673ffffffffffffffffffffffffffffffffffffffff1681526020016009820160009054906101000a900473ffffffffffffffffffffffffffffffffffffffff1673ffffffffffffffffffffffffffffffffffffffff1673ffffffffffffffffffffffffffffffffffffffff168152602001600a8201548152602001600b820160009054906101000a900460ff161515151581525050848681518110612b4457612b43613db8565b5b6020026020010181905250600185612b5c9190613d62565b945050505b8080612b6c90613de7565b91505061276a565b508094505050505090565b81600073ffffffffffffffffffffffffffffffffffffffff166006600083815260200190815260200160002060050160009054906101000a900473ffffffffffffffffffffffffffffffffffffffff1673ffffffffffffffffffffffffffffffffffffffff16148015612c5357503373ffffffffffffffffffffffffffffffffffffffff166006600083815260200190815260200160002060040160009054906101000a900473ffffffffffffffffffffffffffffffffffffffff1673ffffffffffffffffffffffffffffffffffffffff16145b612c92576040517f08c379a0000000000000000000000000000000000000000000000000000000008152600401612c8990614189565b60405180910390fd5b6000600660008581526020019081526020016000209050600081600a0154905080826007018190555060008260080160046101000a81548160ff02191690831515021790555060008260080160059054906101000a900473ffffffffffffffffffffffffffffffffffffffff169050808360050160006101000a81548173ffffffffffffffffffffffffffffffffffffffff021916908373ffffffffffffffffffffffffffffffffffffffff16021790555060008360090160009054906101000a900473ffffffffffffffffffffffffffffffffffffffff169050808460040160006101000a81548173ffffffffffffffffffffffffffffffffffffffff021916908373ffffffffffffffffffffffffffffffffffffffff16021790555060008890508073ffffffffffffffffffffffffffffffffffffffff1663f5537ede33308a6040518463ffffffff167c0100000000000000000000000000000000000000000000000000000000028152600401612e0e93929190613ebb565b600060405180830381600087803b158015612e2857600080fd5b505af1158015612e3c573d6000803e3d6000fd5b5050505083887f0cda8f7bfedf96da039369f3a99bc7c6fe0187618743d6a93bceb682d3026a2060008686604051612e76939291906141a9565b60405180910390a3505050505050505050565b600260005403612ece576040517f08c379a0000000000000000000000000000000000000000000000000000000008152600401612ec590613e8c565b60405180910390fd5b600260008190555060008211612f19576040517f08c379a0000000000000000000000000000000000000000000000000000000008152600401612f109061422c565b60405180910390fd5b60008311612f5c576040517f08c379a0000000000000000000000000000000000000000000000000000000008152600401612f5390614298565b60405180910390fd5b6002543414612fa0576040517f08c379a0000000000000000000000000000000000000000000000000000000008152600401612f9790614304565b60405180910390fd5b600073ffffffffffffffffffffffffffffffffffffffff168473ffffffffffffffffffffffffffffffffffffffff160361300f576040517f08c379a000000000000000000000000000000000000000000000000000000000815260040161300690614370565b60405180910390fd5b6130196003613594565b600160009054906101000a900473ffffffffffffffffffffffffffffffffffffffff1673ffffffffffffffffffffffffffffffffffffffff166108fc6002549081150290604051600060405180830381858888f19350505050158015613083573d6000803e3d6000fd5b5060006130906003613586565b9050604051806101c001604052808673ffffffffffffffffffffffffffffffffffffffff1681526020018281526020018581526020013373ffffffffffffffffffffffffffffffffffffffff1681526020013373ffffffffffffffffffffffffffffffffffffffff168152602001600073ffffffffffffffffffffffffffffffffffffffff168152602001600160009054906101000a900473ffffffffffffffffffffffffffffffffffffffff1673ffffffffffffffffffffffffffffffffffffffff1681526020018481526020018360030b8152602001600015158152602001600073ffffffffffffffffffffffffffffffffffffffff168152602001600073ffffffffffffffffffffffffffffffffffffffff168152602001848152602001600015158152506006600083815260200190815260200160002060008201518160000160006101000a81548173ffffffffffffffffffffffffffffffffffffffff021916908373ffffffffffffffffffffffffffffffffffffffff160217905550602082015181600101556040820151816002015560608201518160030160006101000a81548173ffffffffffffffffffffffffffffffffffffffff021916908373ffffffffffffffffffffffffffffffffffffffff16021790555060808201518160040160006101000a81548173ffffffffffffffffffffffffffffffffffffffff021916908373ffffffffffffffffffffffffffffffffffffffff16021790555060a08201518160050160006101000a81548173ffffffffffffffffffffffffffffffffffffffff021916908373ffffffffffffffffffffffffffffffffffffffff16021790555060c08201518160060160006101000a81548173ffffffffffffffffffffffffffffffffffffffff021916908373ffffffffffffffffffffffffffffffffffffffff16021790555060e082015181600701556101008201518160080160006101000a81548163ffffffff021916908360030b63ffffffff1602179055506101208201518160080160046101000a81548160ff0219169083151502179055506101408201518160080160056101000a81548173ffffffffffffffffffffffffffffffffffffffff021916908373ffffffffffffffffffffffffffffffffffffffff1602179055506101608201518160090160006101000a81548173ffffffffffffffffffffffffffffffffffffffff021916908373ffffffffffffffffffffffffffffffffffffffff16021790555061018082015181600a01556101a082015181600b0160006101000a81548160ff0219169083151502179055509050508473ffffffffffffffffffffffffffffffffffffffff166323b872dd3330876040518463ffffffff167c01000000000000000000000000000000000000000000000000000000000281526004016134b093929190613ebb565b600060405180830381600087803b1580156134ca57600080fd5b505af11580156134de573d6000803e3d6000fd5b50505050808573ffffffffffffffffffffffffffffffffffffffff167f6bced06b00824cc4714170d0e718d18546c05d3dd40d765a4a7bc9e82872dac08633336000600160009054906101000a900473ffffffffffffffffffffffffffffffffffffffff168a8a60008060008f60006040516135659c9b9a9998979695949392919061439f565b60405180910390a350600160008190555050505050565b6000600254905090565b600081600001549050919050565b6001816000016000828254019250508190555050565b600081600001549050600081116135f6576040517f08c379a00000000000000000000000000000000000000000000000000000000081526004016135ed906144a5565b60405180910390fd5b6001810382600001819055505050565b604051806101c00160405280600073ffffffffffffffffffffffffffffffffffffffff1681526020016000815260200160008152602001600073ffffffffffffffffffffffffffffffffffffffff168152602001600073ffffffffffffffffffffffffffffffffffffffff168152602001600073ffffffffffffffffffffffffffffffffffffffff168152602001600073ffffffffffffffffffffffffffffffffffffffff16815260200160008152602001600060030b8152602001600015158152602001600073ffffffffffffffffffffffffffffffffffffffff168152602001600073ffffffffffffffffffffffffffffffffffffffff168152602001600081526020016000151581525090565b600081519050919050565b600082825260208201905092915050565b6000819050602082019050919050565b600073ffffffffffffffffffffffffffffffffffffffff82169050919050565b600061376d82613742565b9050919050565b61377d81613762565b82525050565b6000819050919050565b61379681613783565b82525050565b60006137a782613742565b9050919050565b6137b78161379c565b82525050565b60008160030b9050919050565b6137d3816137bd565b82525050565b60008115159050919050565b6137ee816137d9565b82525050565b6101c08201600082015161380b6000850182613774565b50602082015161381e602085018261378d565b506040820151613831604085018261378d565b50606082015161384460608501826137ae565b50608082015161385760808501826137ae565b5060a082015161386a60a08501826137ae565b5060c082015161387d60c08501826137ae565b5060e082015161389060e085018261378d565b506101008201516138a56101008501826137ca565b506101208201516138ba6101208501826137e5565b506101408201516138cf610140850182613774565b506101608201516138e4610160850182613774565b506101808201516138f961018085018261378d565b506101a082015161390e6101a08501826137e5565b50505050565b600061392083836137f4565b6101c08301905092915050565b6000602082019050919050565b600061394582613716565b61394f8185613721565b935061395a83613732565b8060005b8381101561398b5781516139728882613914565b975061397d8361392d565b92505060018101905061395e565b5085935050505092915050565b600060208201905081810360008301526139b2818461393a565b905092915050565b600080fd5b6139c881613762565b81146139d357600080fd5b50565b6000813590506139e5816139bf565b92915050565b6139f481613783565b81146139ff57600080fd5b50565b600081359050613a11816139eb565b92915050565b60008060408385031215613a2e57613a2d6139ba565b5b6000613a3c858286016139d6565b9250506020613a4d85828601613a02565b9150509250929050565b600080600060608486031215613a7057613a6f6139ba565b5b6000613a7e868287016139d6565b9350506020613a8f86828701613a02565b9250506040613aa086828701613a02565b9150509250925092565b600060208284031215613ac057613abf6139ba565b5b6000613ace84828501613a02565b91505092915050565b6101c082016000820151613aee6000850182613774565b506020820151613b01602085018261378d565b506040820151613b14604085018261378d565b506060820151613b2760608501826137ae565b506080820151613b3a60808501826137ae565b5060a0820151613b4d60a08501826137ae565b5060c0820151613b6060c08501826137ae565b5060e0820151613b7360e085018261378d565b50610100820151613b886101008501826137ca565b50610120820151613b9d6101208501826137e5565b50610140820151613bb2610140850182613774565b50610160820151613bc7610160850182613774565b50610180820151613bdc61018085018261378d565b506101a0820151613bf16101a08501826137e5565b50505050565b60006101c082019050613c0d6000830184613ad7565b92915050565b613c1c816137bd565b8114613c2757600080fd5b50565b600081359050613c3981613c13565b92915050565b60008060008060808587031215613c5957613c586139ba565b5b6000613c67878288016139d6565b9450506020613c7887828801613a02565b9350506040613c8987828801613a02565b9250506060613c9a87828801613c2a565b91505092959194509250565b613caf81613783565b82525050565b6000602082019050613cca6000830184613ca6565b92915050565b7f4e487b7100000000000000000000000000000000000000000000000000000000600052601160045260246000fd5b6000613d0a82613783565b9150613d1583613783565b925082821015613d2857613d27613cd0565b5b828203905092915050565b7f4e487b7100000000000000000000000000000000000000000000000000000000600052604160045260246000fd5b6000613d6d82613783565b9150613d7883613783565b9250827fffffffffffffffffffffffffffffffffffffffffffffffffffffffffffffffff03821115613dad57613dac613cd0565b5b828201905092915050565b7f4e487b7100000000000000000000000000000000000000000000000000000000600052603260045260246000fd5b6000613df282613783565b91507fffffffffffffffffffffffffffffffffffffffffffffffffffffffffffffffff8203613e2457613e23613cd0565b5b600182019050919050565b600082825260208201905092915050565b7f5265656e7472616e637947756172643a207265656e7472616e742063616c6c00600082015250565b6000613e76601f83613e2f565b9150613e8182613e40565b602082019050919050565b60006020820190508181036000830152613ea581613e69565b9050919050565b613eb581613762565b82525050565b6000606082019050613ed06000830186613eac565b613edd6020830185613eac565b613eea6040830184613ca6565b949350505050565b6000819050919050565b6000613f17613f12613f0d84613742565b613ef2565b613742565b9050919050565b6000613f2982613efc565b9050919050565b6000613f3b82613f1e565b9050919050565b613f4b81613f30565b82525050565b6000819050919050565b6000613f76613f71613f6c84613f51565b613ef2565b613783565b9050919050565b613f8681613f5b565b82525050565b613f95816137d9565b82525050565b600061010082019050613fb1600083018b613f42565b613fbe602083018a613f42565b613fcb6040830189613f42565b613fd86060830188613ca6565b613fe56080830187613eac565b613ff260a0830186613eac565b613fff60c0830185613f7d565b61400c60e0830184613f8c565b9998505050505050505050565b7f4f6e6c792070726f64756374206f776e65722063616e20646f2074686973206f60008201527f7065726174696f6e000000000000000000000000000000000000000000000000602082015250565b6000614075602883613e2f565b915061408082614019565b604082019050919050565b600060208201905081810360008301526140a481614068565b9050919050565b7f5072696365206d757374206265206174206c6561737420312077656900000000600082015250565b60006140e1601c83613e2f565b91506140ec826140ab565b602082019050919050565b60006020820190508181036000830152614110816140d4565b9050919050565b7f4f6e6c79207468652070726f647563742063616e20646f2074686973206f706560008201527f726174696f6e0000000000000000000000000000000000000000000000000000602082015250565b6000614173602683613e2f565b915061417e82614117565b604082019050919050565b600060208201905081810360008301526141a281614166565b9050919050565b60006060820190506141be6000830186613f8c565b6141cb6020830185613eac565b6141d86040830184613eac565b949350505050565b7f50726963652073686f756c64206265206d6f72655468616e2031000000000000600082015250565b6000614216601a83613e2f565b9150614221826141e0565b602082019050919050565b6000602082019050818103600083015261424581614209565b9050919050565b7f746f6b656e2049642073686f756c64206265206d6f72655468616e2031000000600082015250565b6000614282601d83613e2f565b915061428d8261424c565b602082019050919050565b600060208201905081810360008301526142b181614275565b9050919050565b7f546865204d61726b6574204665657320697320302e3130204574686572000000600082015250565b60006142ee601d83613e2f565b91506142f9826142b8565b602082019050919050565b6000602082019050818103600083015261431d816142e1565b9050919050565b7f616464726573732073686f756c64206e6f7420626520657175616c2030783000600082015250565b600061435a601f83613e2f565b915061436582614324565b602082019050919050565b600060208201905081810360008301526143898161434d565b9050919050565b614399816137bd565b82525050565b6000610180820190506143b5600083018f613ca6565b6143c2602083018e613eac565b6143cf604083018d613eac565b6143dc606083018c613eac565b6143e9608083018b613f42565b6143f660a083018a613ca6565b61440360c0830189614390565b61441060e0830188613f8c565b61441e610100830187613eac565b61442c610120830186613eac565b61443a610140830185613ca6565b614448610160830184613f8c565b9d9c50505050505050505050505050565b7f436f756e7465723a2064656372656d656e74206f766572666c6f770000000000600082015250565b600061448f601b83613e2f565b915061449a82614459565b602082019050919050565b600060208201905081810360008301526144be81614482565b905091905056fea2646970667358221220ea49ec7c3f613947d8e5c0787a61ec31af6ae0a55568d86d0c49720d73e39aa564736f6c634300080d0033",
  "immutableReferences": {},
  "source": "// SPDX-License-Identifier: MIT\npragma solidity >=0.4.22 <0.9.0;\nimport \"@openzeppelin/contracts/utils/Counters.sol\";\nimport \"@openzeppelin/contracts/token/ERC721/ERC721.sol\";\nimport \"@openzeppelin/contracts/security/ReentrancyGuard.sol\";\n\nimport \"./NFT.sol\";\n\ncontract NFTMarketPlace is ReentrancyGuard {\n    address payable owner;\n    uint256 marketFees = 0.10 ether;\n    using Counters for Counters.Counter;\n    Counters.Counter private itemId;\n    Counters.Counter private itemsSold;\n    Counters.Counter private _itemsDeleted;\n\n    constructor() {\n        owner = payable(msg.sender);\n    }\n\n    struct NftMarketItem {\n        address nftContract;\n        uint256 id;\n        uint256 tokenId;\n        address payable creator;\n        address payable seller;\n        address payable owner;\n        address payable admin;\n        uint256 price;\n        int32 royalty;\n        bool sold;\n        address oldOwner;\n        address oldSeller;\n        uint256 oldPrice;\n        bool isResell;\n    }\n\n    event NftMarketItemCreated(\n        address indexed nftContract,\n        uint256 indexed id,\n        uint256 tokenId,\n        address creator,\n        address seller,\n        address owner,\n        address admin,\n        uint256 price,\n        int32 royalty,\n        bool sold,\n        address oldOwner,\n        address oldSeller,\n        uint256 oldPrice,\n        bool isResell\n    );\n\n    //=>\n    event ProductUpdated(\n        uint256 indexed id,\n        uint256 indexed newPrice,\n        bool sold,\n        address owner,\n        address seller\n    );\n    //=>\n    event MarketItemDeleted(uint256 id);\n    //=>\n    event ProductSold(\n        uint256 indexed id,\n        address indexed nftContract,\n        uint256 indexed tokenId,\n        address creator,\n        address seller,\n        address owner,\n        uint256 price,\n        address oldOwner,\n        address oldSeller,\n        uint256 oldPrice,\n        bool isResell\n    );\n    //==>\n    event ProductListed(uint256 indexed itemId);\n\n    function gettheMarketFees() public view returns (uint256) {\n        return marketFees;\n    }\n\n    ///////////////////////////////////\n    mapping(uint256 => NftMarketItem) private idForMarketItem;\n    ///////////////////////////////////\n    ///=>\n    modifier onlyProductOrMarketPlaceOwner(uint256 id) {\n        if (idForMarketItem[id].owner != address(0)) {\n            require(idForMarketItem[id].owner == msg.sender);\n        } else {\n            require(\n                idForMarketItem[id].seller == msg.sender || msg.sender == owner\n            );\n        }\n        _;\n    }\n\n    modifier onlyProductSeller(uint256 id) {\n        require(\n            idForMarketItem[id].owner == address(0) &&\n                idForMarketItem[id].seller == msg.sender,\n            \"Only the product can do this operation\"\n        );\n        _;\n    }\n\n    modifier onlyItemOwner(uint256 id) {\n        require(\n            idForMarketItem[id].owner == msg.sender,\n            \"Only product owner can do this operation\"\n        );\n        _;\n    }\n\n    modifier onlyItemOldOwner(uint256 id) {\n        require(\n            idForMarketItem[id].oldOwner == msg.sender,\n            \"Only product Old owner can do this operation\"\n        );\n        _;\n    }\n\n    function createItemForSale(\n        address nftContract,\n        uint256 tokenId,\n        uint256 price,\n        int32 royalty\n    ) public payable nonReentrant {\n        require(price > 0, \"Price should be moreThan 1\");\n        require(tokenId > 0, \"token Id should be moreThan 1\");\n        require(msg.value == marketFees, \"The Market Fees is 0.10 Ether\");\n        require(nftContract != address(0), \"address should not be equal 0x0\");\n        itemId.increment();\n        payable(owner).transfer(marketFees);\n        uint256 id = itemId.current();\n\n        idForMarketItem[id] = NftMarketItem(\n            nftContract,\n            id,\n            tokenId,\n            payable(msg.sender),\n            payable(msg.sender),\n            payable(address(0)),\n            owner,\n            price,\n            royalty,\n            false,\n            payable(address(0)),\n            payable(address(0)),\n            price,\n            false\n        );\n\n        IERC721(nftContract).transferFrom(msg.sender, address(this), tokenId);\n\n        //Creatore-seller-owner\n        emit NftMarketItemCreated(\n            nftContract,\n            id,\n            tokenId,\n            msg.sender,\n            msg.sender,\n            address(0),\n            owner,\n            price,\n            royalty,\n            false,\n            address(0),\n            address(0),\n            price,\n            false\n        );\n    }\n\n    //=>Update Item =>We Dont Use This\n\n    function updateMarketItem(\n        address nftContract,\n        uint256 id,\n        uint256 tokenId\n    ) public payable onlyProductSeller(id) {\n        NftMarketItem storage item = idForMarketItem[id];\n        uint256 newPrice = item.oldPrice;\n        item.price = newPrice;\n        item.sold = false;\n        address newOwner = item.oldOwner;\n        item.owner = payable(newOwner);\n        address newSeller = item.oldSeller;\n        item.seller = payable(newSeller);\n        NFT tokenContract = NFT(nftContract);\n        tokenContract.transferToken(msg.sender, address(this), tokenId);\n        emit ProductUpdated(id, newPrice, false, newOwner, newSeller);\n    }\n\n    function sendRoyaltiesToCreator(uint256 nftItemId)\n        public\n        payable\n        nonReentrant\n    {\n        idForMarketItem[nftItemId].creator.transfer(msg.value);\n    }\n    function sendAdimCommissionToAdmin(uint256 nftItemId)\n        public\n        payable\n        nonReentrant\n    {\n        idForMarketItem[nftItemId].admin.transfer(msg.value);\n    }\n\n    //Buy Item\n    function createMarketForSale(address nftContract, uint256 nftItemId)\n        public\n        payable\n        nonReentrant\n    {\n        // uint256 price = idForMarketItem[nftItemId].price;\n        uint256 tokenId = idForMarketItem[nftItemId].tokenId;\n\n        // require(msg.value == price, \"should buy the price of item\");\n        // idForMarketItem[nftItemId].seller.transfer(msg.value);\n        IERC721(nftContract).transferFrom(address(this), msg.sender, tokenId); //buy\n        idForMarketItem[nftItemId].owner = payable(msg.sender);\n        idForMarketItem[nftItemId].sold = true;\n        idForMarketItem[nftItemId].isResell = true;\n        itemsSold.increment();\n        // payable(owner).transfer(msg.value);\n        emit ProductSold(\n            idForMarketItem[nftItemId].id,\n            idForMarketItem[nftItemId].nftContract,\n            idForMarketItem[nftItemId].tokenId,\n            idForMarketItem[nftItemId].creator,\n            idForMarketItem[nftItemId].seller,\n            payable(msg.sender),\n            idForMarketItem[nftItemId].price,\n            address(0),\n            address(0),\n            0,\n            idForMarketItem[nftItemId].isResell\n        );\n    }\n\n    function cancelResellWitholdPrice(address nftContract, uint256 nftItemId)\n        public\n        payable\n        nonReentrant\n    {\n        uint256 price = idForMarketItem[nftItemId].oldPrice;\n        uint256 tokenId = idForMarketItem[nftItemId].tokenId;\n        IERC721(nftContract).transferFrom(address(this), msg.sender, tokenId); //buy\n        idForMarketItem[nftItemId].owner = payable(msg.sender);\n        idForMarketItem[nftItemId].price = price;\n        idForMarketItem[nftItemId].seller = payable(\n            idForMarketItem[nftItemId].oldSeller\n        );\n        idForMarketItem[nftItemId].sold = true;\n        itemsSold.increment();\n\n        emit ProductSold(\n            idForMarketItem[nftItemId].id,\n            idForMarketItem[nftItemId].nftContract,\n            idForMarketItem[nftItemId].tokenId,\n            idForMarketItem[nftItemId].creator,\n            idForMarketItem[nftItemId].seller,\n            payable(msg.sender),\n            idForMarketItem[nftItemId].price,\n            address(0),\n            address(0),\n            0,\n            idForMarketItem[nftItemId].isResell\n        );\n    }\n\n    //REsell\n    function putItemToResell(\n        address nftContract,\n        uint256 itemid,\n        uint256 newPrice\n    ) public payable nonReentrant onlyItemOwner(itemid) {\n        uint256 tokenId = idForMarketItem[itemid].tokenId;\n        require(newPrice > 0, \"Price must be at least 1 wei\");\n\n        NFT tokenContract = NFT(nftContract);\n\n        tokenContract.transferToken(msg.sender, address(this), tokenId);\n\n        address payable oldOwner = idForMarketItem[itemid].owner;\n        address payable oldSeller = idForMarketItem[itemid].seller;\n\n        uint256 oldPrice = idForMarketItem[itemid].price;\n\n        idForMarketItem[itemid].owner = payable(address(0));\n        idForMarketItem[itemid].seller = oldOwner;\n        idForMarketItem[itemid].price = newPrice;\n        idForMarketItem[itemid].sold = false;\n        //Start to save old value\n        idForMarketItem[itemid].oldOwner = oldOwner;\n        idForMarketItem[itemid].oldSeller = oldSeller;\n        idForMarketItem[itemid].oldPrice = oldPrice;\n\n        itemsSold.decrement();\n\n        emit ProductListed(itemid);\n    }\n\n    ///FETCH SINGLE NFT\n    function fetchSingleItem(uint256 id)\n        public\n        view\n        returns (NftMarketItem memory)\n    {\n        return idForMarketItem[id];\n    }\n\n    /////////////////////////GETS///////\n\n    //My items => sold,not sold,buy\n\n    function getMyItemCreated() public view returns (NftMarketItem[] memory) {\n        uint256 totalItemCount = itemId.current();\n        uint256 myItemCount = 0; //10\n        uint256 myCurrentIndex = 0;\n\n        for (uint256 i = 0; i < totalItemCount; i++) {\n            if (idForMarketItem[i + 1].creator == msg.sender) {\n                myItemCount += 1;\n            }\n        }\n        NftMarketItem[] memory nftItems = new NftMarketItem[](myItemCount); //list[3]\n        for (uint256 i = 0; i < totalItemCount; i++) {\n            if (idForMarketItem[i + 1].creator == msg.sender) {\n                //[1,2,3,4,5]\n                uint256 currentId = i + 1;\n                NftMarketItem storage currentItem = idForMarketItem[currentId];\n                nftItems[myCurrentIndex] = currentItem;\n                myCurrentIndex += 1;\n            }\n        }\n\n        return nftItems;\n    }\n\n    function getMyItemsolod() public view returns (NftMarketItem[] memory) {\n        uint256 totalItemCount = itemId.current();\n        uint256 myItemCount = 0; //10\n        uint256 myCurrentIndex = 0;\n\n        for (uint256 i = 0; i < totalItemCount; i++) {\n            if (idForMarketItem[i + 1].seller == msg.sender) {\n                myItemCount += 1;\n            }\n        }\n        NftMarketItem[] memory nftItems = new NftMarketItem[](myItemCount); //list[3]\n        for (uint256 i = 0; i < totalItemCount; i++) {\n            if (idForMarketItem[i + 1].seller == msg.sender) {\n                //[1,2,3,4,5]\n                uint256 currentId = i + 1;\n                NftMarketItem storage currentItem = idForMarketItem[currentId];\n                nftItems[myCurrentIndex] = currentItem;\n                myCurrentIndex += 1;\n            }\n        }\n\n        return nftItems;\n    }\n\n    //Create My purchased Nft Item\n\n    function getMyNFTPurchased() public view returns (NftMarketItem[] memory) {\n        uint256 totalItemCount = itemId.current();\n        uint256 myItemCount = 0; //10\n        uint256 myCurrentIndex = 0;\n\n        for (uint256 i = 0; i < totalItemCount; i++) {\n            if (idForMarketItem[i + 1].owner == msg.sender) {\n                myItemCount += 1;\n            }\n        }\n\n        NftMarketItem[] memory nftItems = new NftMarketItem[](myItemCount); //list[3]\n        for (uint256 i = 0; i < totalItemCount; i++) {\n            if (idForMarketItem[i + 1].owner == msg.sender) {\n                //[1,2,3,4,5]\n                uint256 currentId = i + 1;\n                NftMarketItem storage currentItem = idForMarketItem[currentId];\n                nftItems[myCurrentIndex] = currentItem;\n                myCurrentIndex += 1;\n            }\n        }\n\n        return nftItems;\n    }\n\n    //Fetch  all unsold nft items\n    function getAllUnsoldItems() public view returns (NftMarketItem[] memory) {\n        uint256 totalItemCount = itemId.current();\n        uint256 myItemCount = itemId.current() - itemsSold.current();\n        uint256 myCurrentIndex = 0;\n\n        NftMarketItem[] memory nftItems = new NftMarketItem[](myItemCount); //list[3]\n        for (uint256 i = 0; i < totalItemCount; i++) {\n            if (idForMarketItem[i + 1].owner == address(0)) {\n                //[1,2,3,4,5]\n                uint256 currentId = i + 1;\n                NftMarketItem storage currentItem = idForMarketItem[currentId];\n                nftItems[myCurrentIndex] = currentItem;\n                myCurrentIndex += 1;\n            }\n        }\n\n        return nftItems;\n    }\n\n    //Get resell my items\n\n    function getMyResellItems() public view returns (NftMarketItem[] memory) {\n        uint256 totalItemCount = itemId.current();\n        uint256 myItemCount = 0; //10\n        uint256 myCurrentIndex = 0;\n\n        for (uint256 i = 0; i < totalItemCount; i++) {\n            if (\n                (idForMarketItem[i + 1].seller == msg.sender) &&\n                (idForMarketItem[i + 1].sold == false)\n            ) {\n                myItemCount += 1;\n            }\n        }\n\n        NftMarketItem[] memory nftItems = new NftMarketItem[](myItemCount); //list[3]\n        for (uint256 i = 0; i < totalItemCount; i++) {\n            if (\n                (idForMarketItem[i + 1].seller == msg.sender) &&\n                (idForMarketItem[i + 1].sold == false)\n            ) {\n                //[1,2,3,4,5]\n                uint256 currentId = i + 1;\n                NftMarketItem storage currentItem = idForMarketItem[currentId];\n                nftItems[myCurrentIndex] = currentItem;\n                myCurrentIndex += 1;\n            }\n        }\n        return nftItems;\n    }\n}\n",
  "sourcePath": "E:\\BlockChainTutorial\\deployWithTruffle\\contracts\\NFTMarketPlace.sol",
  "compiler": {
    "name": "solc",
    "version": "0.8.13+commit.abaa5c0e.Emscripten.clang"
  },
  "schemaVersion": "3.4.7",
  "updatedAt": "2022-04-16T02:23:42.700Z",
  "networkType": "ethereum",
  "devdoc": {
    "kind": "dev",
    "methods": {},
    "version": 1
  },
  "userdoc": {
    "kind": "user",
    "methods": {
      "fetchSingleItem(uint256)": {
        "notice": "FETCH SINGLE NFT"
      }
    },
    "version": 1
  }
}