{
  "contractName": "RoyaltiesV2Impl",
  "abi": [
    {
      "anonymous": false,
      "inputs": [
        {
          "indexed": false,
          "internalType": "uint256",
          "name": "tokenId",
          "type": "uint256"
        },
        {
          "components": [
            {
              "internalType": "address payable",
              "name": "account",
              "type": "address"
            },
            {
              "internalType": "uint96",
              "name": "value",
              "type": "uint96"
            }
          ],
          "indexed": false,
          "internalType": "struct LibPart.Part[]",
          "name": "royalties",
          "type": "tuple[]"
        }
      ],
      "name": "RoyaltiesSet",
      "type": "event"
    },
    {
      "inputs": [
        {
          "internalType": "uint256",
          "name": "",
          "type": "uint256"
        },
        {
          "internalType": "uint256",
          "name": "",
          "type": "uint256"
        }
      ],
      "name": "royalties",
      "outputs": [
        {
          "internalType": "address payable",
          "name": "account",
          "type": "address"
        },
        {
          "internalType": "uint96",
          "name": "value",
          "type": "uint96"
        }
      ],
      "stateMutability": "view",
      "type": "function"
    },
    {
      "inputs": [
        {
          "internalType": "uint256",
          "name": "id",
          "type": "uint256"
        }
      ],
      "name": "getRaribleV2Royalties",
      "outputs": [
        {
          "components": [
            {
              "internalType": "address payable",
              "name": "account",
              "type": "address"
            },
            {
              "internalType": "uint96",
              "name": "value",
              "type": "uint96"
            }
          ],
          "internalType": "struct LibPart.Part[]",
          "name": "",
          "type": "tuple[]"
        }
      ],
      "stateMutability": "view",
      "type": "function"
    }
  ],
  "bytecode": "0x608060405234801561001057600080fd5b506104bc806100206000396000f3fe608060405234801561001057600080fd5b5060043610610053576000357c0100000000000000000000000000000000000000000000000000000000900480638924af7414610058578063cad96cca14610089575b600080fd5b610072600480360381019061006d919061026a565b6100b9565b604051610080929190610312565b60405180910390f35b6100a3600480360381019061009e919061033b565b61012e565b6040516100b09190610464565b60405180910390f35b600060205281600052604060002081815481106100d557600080fd5b90600052602060002001600091509150508060000160009054906101000a900473ffffffffffffffffffffffffffffffffffffffff16908060000160149054906101000a90046bffffffffffffffffffffffff16905082565b6060600080838152602001908152602001600020805480602002602001604051908101604052809291908181526020016000905b82821015610224578382906000526020600020016040518060400160405290816000820160009054906101000a900473ffffffffffffffffffffffffffffffffffffffff1673ffffffffffffffffffffffffffffffffffffffff1673ffffffffffffffffffffffffffffffffffffffff1681526020016000820160149054906101000a90046bffffffffffffffffffffffff166bffffffffffffffffffffffff166bffffffffffffffffffffffff168152505081526020019060010190610162565b505050509050919050565b600080fd5b6000819050919050565b61024781610234565b811461025257600080fd5b50565b6000813590506102648161023e565b92915050565b600080604083850312156102815761028061022f565b5b600061028f85828601610255565b92505060206102a085828601610255565b9150509250929050565b600073ffffffffffffffffffffffffffffffffffffffff82169050919050565b60006102d5826102aa565b9050919050565b6102e5816102ca565b82525050565b60006bffffffffffffffffffffffff82169050919050565b61030c816102eb565b82525050565b600060408201905061032760008301856102dc565b6103346020830184610303565b9392505050565b6000602082840312156103515761035061022f565b5b600061035f84828501610255565b91505092915050565b600081519050919050565b600082825260208201905092915050565b6000819050602082019050919050565b61039d816102ca565b82525050565b6103ac816102eb565b82525050565b6040820160008201516103c86000850182610394565b5060208201516103db60208501826103a3565b50505050565b60006103ed83836103b2565b60408301905092915050565b6000602082019050919050565b600061041182610368565b61041b8185610373565b935061042683610384565b8060005b8381101561045757815161043e88826103e1565b9750610449836103f9565b92505060018101905061042a565b5085935050505092915050565b6000602082019050818103600083015261047e8184610406565b90509291505056fea264697066735822122090c272cb0044d726c45adb7452d6b770deae454014021f53ee8c0932f544335464736f6c634300080d0033",
  "immutableReferences": {},
  "source": "// SPDX-License-Identifier: MIT\r\npragma solidity ^0.8.0;\r\nimport \"./AbstractRoyalties.sol\";\r\nimport \"../RoyaltiesV2.sol\";\r\ncontract RoyaltiesV2Impl is AbstractRoyalties, RoyaltiesV2 {\r\n    function getRaribleV2Royalties(uint256 id) override external view returns (LibPart.Part[] memory) {\r\n        return royalties[id];\r\n     }\r\n    function _onRoyaltiesSet(uint256 _id, LibPart.Part[] memory _royalties) override internal {\r\n        emit RoyaltiesSet(_id, _royalties);\r\n     }\r\n}",
  "sourcePath": "E:\\BlockChainTutorial\\deployWithTruffle\\contracts\\@rarible\\royalties\\contracts\\impl\\RoyaltiesV2Impl.sol",
  "compiler": {
    "name": "solc",
    "version": "0.8.13+commit.abaa5c0e.Emscripten.clang"
  },
  "schemaVersion": "3.4.7",
  "updatedAt": "2022-04-16T02:22:09.407Z",
  "devdoc": {
    "kind": "dev",
    "methods": {},
    "version": 1
  },
  "userdoc": {
    "kind": "user",
    "methods": {},
    "version": 1
  }
}